{
  "contractName": "Healthcare",
  "abi": [
    {
      "inputs": [],
      "stateMutability": "nonpayable",
      "type": "constructor"
    },
    {
      "anonymous": false,
      "inputs": [
        {
          "indexed": true,
          "internalType": "address",
          "name": "patient",
          "type": "address"
        },
        {
          "indexed": true,
          "internalType": "address",
          "name": "doctor",
          "type": "address"
        }
      ],
      "name": "DoctorAuthorized",
      "type": "event"
    },
    {
      "anonymous": false,
      "inputs": [
        {
          "indexed": true,
          "internalType": "address",
          "name": "doctor",
          "type": "address"
        },
        {
          "indexed": false,
          "internalType": "string",
          "name": "name",
          "type": "string"
        }
      ],
      "name": "DoctorRegistered",
      "type": "event"
    },
    {
      "anonymous": false,
      "inputs": [
        {
          "indexed": true,
          "internalType": "address",
          "name": "patient",
          "type": "address"
        },
        {
          "indexed": true,
          "internalType": "address",
          "name": "doctor",
          "type": "address"
        }
      ],
      "name": "DoctorRevoked",
      "type": "event"
    },
    {
      "anonymous": false,
      "inputs": [
        {
          "indexed": true,
          "internalType": "address",
          "name": "patient",
          "type": "address"
        },
        {
          "indexed": true,
          "internalType": "address",
          "name": "admin",
          "type": "address"
        }
      ],
      "name": "EmergencyAccess",
      "type": "event"
    },
    {
      "anonymous": false,
      "inputs": [
        {
          "indexed": true,
          "internalType": "address",
          "name": "patient",
          "type": "address"
        },
        {
          "indexed": false,
          "internalType": "string",
          "name": "name",
          "type": "string"
        }
      ],
      "name": "PatientRegistered",
      "type": "event"
    },
    {
      "anonymous": false,
      "inputs": [
        {
          "indexed": true,
          "internalType": "address",
          "name": "patient",
          "type": "address"
        },
        {
          "indexed": false,
          "internalType": "string",
          "name": "updatedField",
          "type": "string"
        }
      ],
      "name": "PatientUpdated",
      "type": "event"
    },
    {
      "inputs": [
        {
          "internalType": "address",
          "name": "",
          "type": "address"
        },
        {
          "internalType": "address",
          "name": "",
          "type": "address"
        }
      ],
      "name": "authorizedDoctors",
      "outputs": [
        {
          "internalType": "bool",
          "name": "",
          "type": "bool"
        }
      ],
      "stateMutability": "view",
      "type": "function",
      "constant": true
    },
    {
      "inputs": [
        {
          "internalType": "address",
          "name": "newAdmin",
          "type": "address"
        }
      ],
      "name": "setAdmin",
      "outputs": [],
      "stateMutability": "nonpayable",
      "type": "function"
    },
    {
      "inputs": [
        {
          "internalType": "string",
          "name": "_name",
          "type": "string"
        },
        {
          "internalType": "uint256",
          "name": "_age",
          "type": "uint256"
        },
        {
          "internalType": "string",
          "name": "_medicalHistory",
          "type": "string"
        }
      ],
      "name": "registerPatient",
      "outputs": [],
      "stateMutability": "nonpayable",
      "type": "function"
    },
    {
      "inputs": [
        {
          "internalType": "address",
          "name": "_doctorAddress",
          "type": "address"
        },
        {
          "internalType": "string",
          "name": "_name",
          "type": "string"
        }
      ],
      "name": "registerDoctor",
      "outputs": [],
      "stateMutability": "nonpayable",
      "type": "function"
    },
    {
      "inputs": [
        {
          "internalType": "address",
          "name": "_doctor",
          "type": "address"
        }
      ],
      "name": "authorizeDoctor",
      "outputs": [],
      "stateMutability": "nonpayable",
      "type": "function"
    },
    {
      "inputs": [
        {
          "internalType": "address",
          "name": "_doctor",
          "type": "address"
        }
      ],
      "name": "revokeDoctorAccess",
      "outputs": [],
      "stateMutability": "nonpayable",
      "type": "function"
    },
    {
      "inputs": [
        {
          "internalType": "address",
          "name": "_patientAddress",
          "type": "address"
        }
      ],
      "name": "getPatientDetails",
      "outputs": [
        {
          "internalType": "string",
          "name": "",
          "type": "string"
        },
        {
          "internalType": "uint256",
          "name": "",
          "type": "uint256"
        },
        {
          "internalType": "string",
          "name": "",
          "type": "string"
        }
      ],
      "stateMutability": "view",
      "type": "function",
      "constant": true
    },
    {
      "inputs": [
        {
          "internalType": "string",
          "name": "_newMedicalHistory",
          "type": "string"
        }
      ],
      "name": "updateMedicalHistory",
      "outputs": [],
      "stateMutability": "nonpayable",
      "type": "function"
    },
    {
      "inputs": [
        {
          "internalType": "address",
          "name": "_patientAddress",
          "type": "address"
        }
      ],
      "name": "getAuthorizedDoctors",
      "outputs": [
        {
          "internalType": "address[]",
          "name": "",
          "type": "address[]"
        }
      ],
      "stateMutability": "view",
      "type": "function",
      "constant": true
    },
    {
      "inputs": [
        {
          "internalType": "address",
          "name": "_doctor",
          "type": "address"
        }
      ],
      "name": "getPatientsForDoctor",
      "outputs": [
        {
          "internalType": "address[]",
          "name": "",
          "type": "address[]"
        }
      ],
      "stateMutability": "view",
      "type": "function",
      "constant": true
    },
    {
      "inputs": [
        {
          "internalType": "address",
          "name": "_patientAddress",
          "type": "address"
        }
      ],
      "name": "emergencyAccess",
      "outputs": [
        {
          "internalType": "string",
          "name": "",
          "type": "string"
        },
        {
          "internalType": "uint256",
          "name": "",
          "type": "uint256"
        },
        {
          "internalType": "string",
          "name": "",
          "type": "string"
        }
      ],
      "stateMutability": "nonpayable",
      "type": "function"
    }
  ],
  "bytecode": "0x608060405234801561001057600080fd5b5073dbff52f7a22a6242061124b70fa7b01ab8d3c062600460006101000a81548173ffffffffffffffffffffffffffffffffffffffff021916908373ffffffffffffffffffffffffffffffffffffffff160217905550612794806100756000396000f3fe608060405234801561001057600080fd5b50600436106100a95760003560e01c806358c9202c1161007157806358c9202c14610164578063704b6c0214610180578063c98887c81461019c578063cbf8a64b146101cc578063efe2ccc1146101fc578063f2ca0b411461022e576100a9565b80631cd5c6e9146100ae5780631d14c36e146100de57806335fd3144146100fa5780633df95ab81461011657806341d724b414610132575b600080fd5b6100c860048036038101906100c39190611a32565b61024a565b6040516100d59190611a8d565b60405180910390f35b6100f860048036038101906100f39190611c24565b610279565b005b610114600480360381019061010f9190611caf565b6104bf565b005b610130600480360381019061012b9190611cf8565b6105ef565b005b61014c60048036038101906101479190611cf8565b6107aa565b60405161015b93929190611db3565b60405180910390f35b61017e60048036038101906101799190611cf8565b610b09565b005b61019a60048036038101906101959190611cf8565b610e88565b005b6101b660048036038101906101b19190611cf8565b610f5c565b6040516101c39190611eb6565b60405180910390f35b6101e660048036038101906101e19190611cf8565b6112d1565b6040516101f39190611eb6565b60405180910390f35b61021660048036038101906102119190611cf8565b6113a1565b60405161022593929190611db3565b60405180910390f35b61024860048036038101906102439190611ed8565b611717565b005b60036020528160005260406000206020528060005260406000206000915091509054906101000a900460ff1681565b6000600160003373ffffffffffffffffffffffffffffffffffffffff1673ffffffffffffffffffffffffffffffffffffffff16815260200190815260200160002060000180546102c890611f63565b90501461030a576040517f08c379a000000000000000000000000000000000000000000000000000000000815260040161030190611fe0565b60405180910390fd5b6040518060800160405280848152602001838152602001828152602001600067ffffffffffffffff81111561034257610341611ac3565b5b6040519080825280602002602001820160405280156103705781602001602082028036833780820191505090505b50815250600160003373ffffffffffffffffffffffffffffffffffffffff1673ffffffffffffffffffffffffffffffffffffffff16815260200190815260200160002060008201518160000190816103c891906121ac565b506020820151816001015560408201518160020190816103e891906121ac565b506060820151816003019080519060200190610405929190611919565b509050506000339080600181540180825580915050600190039060005260206000200160009091909190916101000a81548173ffffffffffffffffffffffffffffffffffffffff021916908373ffffffffffffffffffffffffffffffffffffffff1602179055503373ffffffffffffffffffffffffffffffffffffffff167fc85b128388b9c331a2a5485dce4cd0f3db9f7c279d327ce95d6d39d6c94644c7846040516104b2919061227e565b60405180910390a2505050565b6000600160003373ffffffffffffffffffffffffffffffffffffffff1673ffffffffffffffffffffffffffffffffffffffff168152602001908152602001600020600001805461050e90611f63565b905011610550576040517f08c379a0000000000000000000000000000000000000000000000000000000008152600401610547906122ec565b60405180910390fd5b80600160003373ffffffffffffffffffffffffffffffffffffffff1673ffffffffffffffffffffffffffffffffffffffff168152602001908152602001600020600201908161059f91906121ac565b503373ffffffffffffffffffffffffffffffffffffffff167f8a0b8bf2cd8b70f7a62fed8960ec605e7ed4a62093a82a88ae7b941726754b586040516105e490612358565b60405180910390a250565b600360003373ffffffffffffffffffffffffffffffffffffffff1673ffffffffffffffffffffffffffffffffffffffff16815260200190815260200160002060008273ffffffffffffffffffffffffffffffffffffffff1673ffffffffffffffffffffffffffffffffffffffff16815260200190815260200160002060009054906101000a900460ff166106b8576040517f08c379a00000000000000000000000000000000000000000000000000000000081526004016106af906123c4565b60405180910390fd5b6000600360003373ffffffffffffffffffffffffffffffffffffffff1673ffffffffffffffffffffffffffffffffffffffff16815260200190815260200160002060008373ffffffffffffffffffffffffffffffffffffffff1673ffffffffffffffffffffffffffffffffffffffff16815260200190815260200160002060006101000a81548160ff0219169083151502179055508073ffffffffffffffffffffffffffffffffffffffff163373ffffffffffffffffffffffffffffffffffffffff167f22e403d2e970c47bf0c5435d7205c5c4a749bed24f61717475622bb9886fb48a60405160405180910390a350565b606060006060600460009054906101000a900473ffffffffffffffffffffffffffffffffffffffff1673ffffffffffffffffffffffffffffffffffffffff163373ffffffffffffffffffffffffffffffffffffffff1614610840576040517f08c379a000000000000000000000000000000000000000000000000000000000815260040161083790612456565b60405180910390fd5b6000600160008673ffffffffffffffffffffffffffffffffffffffff1673ffffffffffffffffffffffffffffffffffffffff16815260200190815260200160002060405180608001604052908160008201805461089c90611f63565b80601f01602080910402602001604051908101604052809291908181526020018280546108c890611f63565b80156109155780601f106108ea57610100808354040283529160200191610915565b820191906000526020600020905b8154815290600101906020018083116108f857829003601f168201915b505050505081526020016001820154815260200160028201805461093890611f63565b80601f016020809104026020016040519081016040528092919081815260200182805461096490611f63565b80156109b15780601f10610986576101008083540402835291602001916109b1565b820191906000526020600020905b81548152906001019060200180831161099457829003601f168201915b5050505050815260200160038201805480602002602001604051908101604052809291908181526020018280548015610a3f57602002820191906000526020600020905b8160009054906101000a900473ffffffffffffffffffffffffffffffffffffffff1673ffffffffffffffffffffffffffffffffffffffff16815260200190600101908083116109f5575b5050505050815250509050600081600001515111610a92576040517f08c379a0000000000000000000000000000000000000000000000000000000008152600401610a89906122ec565b60405180910390fd5b3373ffffffffffffffffffffffffffffffffffffffff168573ffffffffffffffffffffffffffffffffffffffff167ff5c2d5a2b22a012477f508c74fc9f1b4a4bb368f6dafbbe95df35c2caa510f4560405160405180910390a3806000015181602001518260400151935093509350509193909250565b6000600160003373ffffffffffffffffffffffffffffffffffffffff1673ffffffffffffffffffffffffffffffffffffffff1681526020019081526020016000206000018054610b5890611f63565b905011610b9a576040517f08c379a0000000000000000000000000000000000000000000000000000000008152600401610b91906122ec565b60405180910390fd5b600260008273ffffffffffffffffffffffffffffffffffffffff1673ffffffffffffffffffffffffffffffffffffffff16815260200190815260200160002060010160009054906101000a900460ff16610c29576040517f08c379a0000000000000000000000000000000000000000000000000000000008152600401610c20906124c2565b60405180910390fd5b600360003373ffffffffffffffffffffffffffffffffffffffff1673ffffffffffffffffffffffffffffffffffffffff16815260200190815260200160002060008273ffffffffffffffffffffffffffffffffffffffff1673ffffffffffffffffffffffffffffffffffffffff16815260200190815260200160002060009054906101000a900460ff1615610cf3576040517f08c379a0000000000000000000000000000000000000000000000000000000008152600401610cea9061252e565b60405180910390fd5b6001600360003373ffffffffffffffffffffffffffffffffffffffff1673ffffffffffffffffffffffffffffffffffffffff16815260200190815260200160002060008373ffffffffffffffffffffffffffffffffffffffff1673ffffffffffffffffffffffffffffffffffffffff16815260200190815260200160002060006101000a81548160ff021916908315150217905550600160003373ffffffffffffffffffffffffffffffffffffffff1673ffffffffffffffffffffffffffffffffffffffff168152602001908152602001600020600301819080600181540180825580915050600190039060005260206000200160009091909190916101000a81548173ffffffffffffffffffffffffffffffffffffffff021916908373ffffffffffffffffffffffffffffffffffffffff1602179055508073ffffffffffffffffffffffffffffffffffffffff163373ffffffffffffffffffffffffffffffffffffffff167fc3255872421c54a1c27c56c4517b663cfbf7024ebaf3b96a1b3edd4f1a41c39e60405160405180910390a350565b600460009054906101000a900473ffffffffffffffffffffffffffffffffffffffff1673ffffffffffffffffffffffffffffffffffffffff163373ffffffffffffffffffffffffffffffffffffffff1614610f18576040517f08c379a0000000000000000000000000000000000000000000000000000000008152600401610f0f90612456565b60405180910390fd5b80600460006101000a81548173ffffffffffffffffffffffffffffffffffffffff021916908373ffffffffffffffffffffffffffffffffffffffff16021790555050565b6060600260003373ffffffffffffffffffffffffffffffffffffffff1673ffffffffffffffffffffffffffffffffffffffff16815260200190815260200160002060010160009054906101000a900460ff16610fed576040517f08c379a0000000000000000000000000000000000000000000000000000000008152600401610fe4906125c0565b60405180910390fd5b6000805b6000805490508110156110ec5760036000808381548110611015576110146125e0565b5b9060005260206000200160009054906101000a900473ffffffffffffffffffffffffffffffffffffffff1673ffffffffffffffffffffffffffffffffffffffff1673ffffffffffffffffffffffffffffffffffffffff16815260200190815260200160002060008573ffffffffffffffffffffffffffffffffffffffff1673ffffffffffffffffffffffffffffffffffffffff16815260200190815260200160002060009054906101000a900460ff16156110d95781806110d59061263e565b9250505b80806110e49061263e565b915050610ff1565b5060008167ffffffffffffffff81111561110957611108611ac3565b5b6040519080825280602002602001820160405280156111375781602001602082028036833780820191505090505b5090506000805b6000805490508110156112c55760036000808381548110611162576111616125e0565b5b9060005260206000200160009054906101000a900473ffffffffffffffffffffffffffffffffffffffff1673ffffffffffffffffffffffffffffffffffffffff1673ffffffffffffffffffffffffffffffffffffffff16815260200190815260200160002060008773ffffffffffffffffffffffffffffffffffffffff1673ffffffffffffffffffffffffffffffffffffffff16815260200190815260200160002060009054906101000a900460ff16156112b2576000818154811061122b5761122a6125e0565b5b9060005260206000200160009054906101000a900473ffffffffffffffffffffffffffffffffffffffff16838381518110611269576112686125e0565b5b602002602001019073ffffffffffffffffffffffffffffffffffffffff16908173ffffffffffffffffffffffffffffffffffffffff168152505081806112ae9061263e565b9250505b80806112bd9061263e565b91505061113e565b50819350505050919050565b6060600160008373ffffffffffffffffffffffffffffffffffffffff1673ffffffffffffffffffffffffffffffffffffffff16815260200190815260200160002060030180548060200260200160405190810160405280929190818152602001828054801561139557602002820191906000526020600020905b8160009054906101000a900473ffffffffffffffffffffffffffffffffffffffff1673ffffffffffffffffffffffffffffffffffffffff168152602001906001019080831161134b575b50505050509050919050565b606060006060838073ffffffffffffffffffffffffffffffffffffffff163373ffffffffffffffffffffffffffffffffffffffff1614806114685750600360008273ffffffffffffffffffffffffffffffffffffffff1673ffffffffffffffffffffffffffffffffffffffff16815260200190815260200160002060003373ffffffffffffffffffffffffffffffffffffffff1673ffffffffffffffffffffffffffffffffffffffff16815260200190815260200160002060009054906101000a900460ff165b6114a7576040517f08c379a000000000000000000000000000000000000000000000000000000000815260040161149e906126d2565b60405180910390fd5b6000600160008773ffffffffffffffffffffffffffffffffffffffff1673ffffffffffffffffffffffffffffffffffffffff16815260200190815260200160002060405180608001604052908160008201805461150390611f63565b80601f016020809104026020016040519081016040528092919081815260200182805461152f90611f63565b801561157c5780601f106115515761010080835404028352916020019161157c565b820191906000526020600020905b81548152906001019060200180831161155f57829003601f168201915b505050505081526020016001820154815260200160028201805461159f90611f63565b80601f01602080910402602001604051908101604052809291908181526020018280546115cb90611f63565b80156116185780601f106115ed57610100808354040283529160200191611618565b820191906000526020600020905b8154815290600101906020018083116115fb57829003601f168201915b50505050508152602001600382018054806020026020016040519081016040528092919081815260200182805480156116a657602002820191906000526020600020905b8160009054906101000a900473ffffffffffffffffffffffffffffffffffffffff1673ffffffffffffffffffffffffffffffffffffffff168152602001906001019080831161165c575b50505050508152505090506000816000015151116116f9576040517f08c379a00000000000000000000000000000000000000000000000000000000081526004016116f0906122ec565b60405180910390fd5b80600001518160200151826040015194509450945050509193909250565b600460009054906101000a900473ffffffffffffffffffffffffffffffffffffffff1673ffffffffffffffffffffffffffffffffffffffff163373ffffffffffffffffffffffffffffffffffffffff16146117a7576040517f08c379a000000000000000000000000000000000000000000000000000000000815260040161179e90612456565b60405180910390fd5b600260008373ffffffffffffffffffffffffffffffffffffffff1673ffffffffffffffffffffffffffffffffffffffff16815260200190815260200160002060010160009054906101000a900460ff1615611837576040517f08c379a000000000000000000000000000000000000000000000000000000000815260040161182e9061273e565b60405180910390fd5b604051806040016040528082815260200160011515815250600260008473ffffffffffffffffffffffffffffffffffffffff1673ffffffffffffffffffffffffffffffffffffffff16815260200190815260200160002060008201518160000190816118a391906121ac565b5060208201518160010160006101000a81548160ff0219169083151502179055509050508173ffffffffffffffffffffffffffffffffffffffff167f20481b8112b5bf4734f45a473c373db9df6a79ce946cdc0e7dbc22b4f7d7f9868260405161190d919061227e565b60405180910390a25050565b828054828255906000526020600020908101928215611992579160200282015b828111156119915782518260006101000a81548173ffffffffffffffffffffffffffffffffffffffff021916908373ffffffffffffffffffffffffffffffffffffffff16021790555091602001919060010190611939565b5b50905061199f91906119a3565b5090565b5b808211156119bc5760008160009055506001016119a4565b5090565b6000604051905090565b600080fd5b600080fd5b600073ffffffffffffffffffffffffffffffffffffffff82169050919050565b60006119ff826119d4565b9050919050565b611a0f816119f4565b8114611a1a57600080fd5b50565b600081359050611a2c81611a06565b92915050565b60008060408385031215611a4957611a486119ca565b5b6000611a5785828601611a1d565b9250506020611a6885828601611a1d565b9150509250929050565b60008115159050919050565b611a8781611a72565b82525050565b6000602082019050611aa26000830184611a7e565b92915050565b600080fd5b600080fd5b6000601f19601f8301169050919050565b7f4e487b7100000000000000000000000000000000000000000000000000000000600052604160045260246000fd5b611afb82611ab2565b810181811067ffffffffffffffff82111715611b1a57611b19611ac3565b5b80604052505050565b6000611b2d6119c0565b9050611b398282611af2565b919050565b600067ffffffffffffffff821115611b5957611b58611ac3565b5b611b6282611ab2565b9050602081019050919050565b82818337600083830152505050565b6000611b91611b8c84611b3e565b611b23565b905082815260208101848484011115611bad57611bac611aad565b5b611bb8848285611b6f565b509392505050565b600082601f830112611bd557611bd4611aa8565b5b8135611be5848260208601611b7e565b91505092915050565b6000819050919050565b611c0181611bee565b8114611c0c57600080fd5b50565b600081359050611c1e81611bf8565b92915050565b600080600060608486031215611c3d57611c3c6119ca565b5b600084013567ffffffffffffffff811115611c5b57611c5a6119cf565b5b611c6786828701611bc0565b9350506020611c7886828701611c0f565b925050604084013567ffffffffffffffff811115611c9957611c986119cf565b5b611ca586828701611bc0565b9150509250925092565b600060208284031215611cc557611cc46119ca565b5b600082013567ffffffffffffffff811115611ce357611ce26119cf565b5b611cef84828501611bc0565b91505092915050565b600060208284031215611d0e57611d0d6119ca565b5b6000611d1c84828501611a1d565b91505092915050565b600081519050919050565b600082825260208201905092915050565b60005b83811015611d5f578082015181840152602081019050611d44565b60008484015250505050565b6000611d7682611d25565b611d808185611d30565b9350611d90818560208601611d41565b611d9981611ab2565b840191505092915050565b611dad81611bee565b82525050565b60006060820190508181036000830152611dcd8186611d6b565b9050611ddc6020830185611da4565b8181036040830152611dee8184611d6b565b9050949350505050565b600081519050919050565b600082825260208201905092915050565b6000819050602082019050919050565b611e2d816119f4565b82525050565b6000611e3f8383611e24565b60208301905092915050565b6000602082019050919050565b6000611e6382611df8565b611e6d8185611e03565b9350611e7883611e14565b8060005b83811015611ea9578151611e908882611e33565b9750611e9b83611e4b565b925050600181019050611e7c565b5085935050505092915050565b60006020820190508181036000830152611ed08184611e58565b905092915050565b60008060408385031215611eef57611eee6119ca565b5b6000611efd85828601611a1d565b925050602083013567ffffffffffffffff811115611f1e57611f1d6119cf565b5b611f2a85828601611bc0565b9150509250929050565b7f4e487b7100000000000000000000000000000000000000000000000000000000600052602260045260246000fd5b60006002820490506001821680611f7b57607f821691505b602082108103611f8e57611f8d611f34565b5b50919050565b7f50617469656e7420616c726561647920726567697374657265642e0000000000600082015250565b6000611fca601b83611d30565b9150611fd582611f94565b602082019050919050565b60006020820190508181036000830152611ff981611fbd565b9050919050565b60008190508160005260206000209050919050565b60006020601f8301049050919050565b600082821b905092915050565b6000600883026120627fffffffffffffffffffffffffffffffffffffffffffffffffffffffffffffffff82612025565b61206c8683612025565b95508019841693508086168417925050509392505050565b6000819050919050565b60006120a96120a461209f84611bee565b612084565b611bee565b9050919050565b6000819050919050565b6120c38361208e565b6120d76120cf826120b0565b848454612032565b825550505050565b600090565b6120ec6120df565b6120f78184846120ba565b505050565b5b8181101561211b576121106000826120e4565b6001810190506120fd565b5050565b601f8211156121605761213181612000565b61213a84612015565b81016020851015612149578190505b61215d61215585612015565b8301826120fc565b50505b505050565b600082821c905092915050565b600061218360001984600802612165565b1980831691505092915050565b600061219c8383612172565b9150826002028217905092915050565b6121b582611d25565b67ffffffffffffffff8111156121ce576121cd611ac3565b5b6121d88254611f63565b6121e382828561211f565b600060209050601f8311600181146122165760008415612204578287015190505b61220e8582612190565b865550612276565b601f19841661222486612000565b60005b8281101561224c57848901518255600182019150602085019450602081019050612227565b868310156122695784890151612265601f891682612172565b8355505b6001600288020188555050505b505050505050565b600060208201905081810360008301526122988184611d6b565b905092915050565b7f50617469656e74206e6f7420726567697374657265642e000000000000000000600082015250565b60006122d6601783611d30565b91506122e1826122a0565b602082019050919050565b60006020820190508181036000830152612305816122c9565b9050919050565b7f6d65646963616c486973746f7279000000000000000000000000000000000000600082015250565b6000612342600e83611d30565b915061234d8261230c565b602082019050919050565b6000602082019050818103600083015261237181612335565b9050919050565b7f446f63746f72206e6f7420617574686f72697a65642e00000000000000000000600082015250565b60006123ae601683611d30565b91506123b982612378565b602082019050919050565b600060208201905081810360008301526123dd816123a1565b9050919050565b7f4f6e6c792061646d696e2063616e20706572666f726d2074686973206163746960008201527f6f6e000000000000000000000000000000000000000000000000000000000000602082015250565b6000612440602283611d30565b915061244b826123e4565b604082019050919050565b6000602082019050818103600083015261246f81612433565b9050919050565b7f446f63746f72206973206e6f7420726567697374657265642e00000000000000600082015250565b60006124ac601983611d30565b91506124b782612476565b602082019050919050565b600060208201905081810360008301526124db8161249f565b9050919050565b7f446f63746f7220616c726561647920617574686f72697a65642e000000000000600082015250565b6000612518601a83611d30565b9150612523826124e2565b602082019050919050565b600060208201905081810360008301526125478161250b565b9050919050565b7f4f6e6c79207265676973746572656420646f63746f72732063616e207065726660008201527f6f726d207468697320616374696f6e0000000000000000000000000000000000602082015250565b60006125aa602f83611d30565b91506125b58261254e565b604082019050919050565b600060208201905081810360008301526125d98161259d565b9050919050565b7f4e487b7100000000000000000000000000000000000000000000000000000000600052603260045260246000fd5b7f4e487b7100000000000000000000000000000000000000000000000000000000600052601160045260246000fd5b600061264982611bee565b91507fffffffffffffffffffffffffffffffffffffffffffffffffffffffffffffffff820361267b5761267a61260f565b5b600182019050919050565b7f556e617574686f72697a65642061636365737300000000000000000000000000600082015250565b60006126bc601383611d30565b91506126c782612686565b602082019050919050565b600060208201905081810360008301526126eb816126af565b9050919050565b7f446f63746f7220616c726561647920726567697374657265642e000000000000600082015250565b6000612728601a83611d30565b9150612733826126f2565b602082019050919050565b600060208201905081810360008301526127578161271b565b905091905056fea264697066735822122031975ec1b0f829a9fe52b50c1cd1eaae9f5ce5ab40fe20b0ab6963ec61d1c18a64736f6c63430008130033",
  "immutableReferences": {},
  "source": "// SPDX-License-Identifier: MIT\r\npragma solidity ^0.8.19;\r\n\r\ncontract Healthcare {\r\n    struct Patient {\r\n        string name;\r\n        uint age;\r\n        string medicalHistory;\r\n        address[] authorizedDoctors;\r\n    }\r\n\r\n    struct Doctor {\r\n        string name;\r\n        bool isRegistered;\r\n    }\r\n\r\n    address[] private patientsList;\r\n    mapping(address => Patient) private patients;\r\n    mapping(address => Doctor) private doctors;\r\n    mapping(address => mapping(address => bool)) public authorizedDoctors; // patient => doctor => authorization\r\n    address private admin;\r\n\r\n    event PatientRegistered(address indexed patient, string name);\r\n    event PatientUpdated(address indexed patient, string updatedField);\r\n    event DoctorRegistered(address indexed doctor, string name);\r\n    event DoctorAuthorized(address indexed patient, address indexed doctor);\r\n    event DoctorRevoked(address indexed patient, address indexed doctor);\r\n    event EmergencyAccess(address indexed patient, address indexed admin);\r\n\r\n    modifier onlyAdmin() {\r\n        require(msg.sender == admin, \"Only admin can perform this action\");\r\n        _;\r\n    }\r\n\r\n    modifier onlyDoctor() {\r\n        require(\r\n            doctors[msg.sender].isRegistered,\r\n            \"Only registered doctors can perform this action\"\r\n        );\r\n        _;\r\n    }\r\n\r\n    modifier onlyPatientOrAuthorizedDoctor(address _patientAddress) {\r\n        require(\r\n            msg.sender == _patientAddress ||\r\n                authorizedDoctors[_patientAddress][msg.sender],\r\n            \"Unauthorized access\"\r\n        );\r\n        _;\r\n    }\r\n\r\n    constructor() {\r\n        admin = 0xDBfF52f7A22A6242061124b70FA7B01aB8D3C062; // Set admin address of the Metamask address\r\n    }\r\n\r\n    // Set the admin\r\n    function setAdmin(address newAdmin) public onlyAdmin {\r\n        admin = newAdmin;\r\n    }\r\n\r\n    // Register a patient\r\n    function registerPatient(\r\n        string memory _name,\r\n        uint _age,\r\n        string memory _medicalHistory\r\n    ) public {\r\n        require(\r\n            bytes(patients[msg.sender].name).length == 0,\r\n            \"Patient already registered.\"\r\n        );\r\n\r\n        // Save the patient's details in the mapping\r\n        patients[msg.sender] = Patient({\r\n            name: _name,\r\n            age: _age,\r\n            medicalHistory: _medicalHistory,\r\n            authorizedDoctors: new address[](0)  // properly initialize as an empty array\r\n        });\r\n\r\n        // Add the patient's address to the list\r\n        patientsList.push(msg.sender);\r\n\r\n        emit PatientRegistered(msg.sender, _name);\r\n    }\r\n\r\n    // Register a doctor (only admin)\r\n    function registerDoctor(\r\n        address _doctorAddress,\r\n        string memory _name\r\n    ) public onlyAdmin {\r\n        require(\r\n            !doctors[_doctorAddress].isRegistered,\r\n            \"Doctor already registered.\"\r\n        );\r\n        doctors[_doctorAddress] = Doctor(_name, true);\r\n        emit DoctorRegistered(_doctorAddress, _name);\r\n    }\r\n\r\n    // Authorize a doctor\r\n    function authorizeDoctor(address _doctor) public {\r\n        require(\r\n            bytes(patients[msg.sender].name).length > 0,\r\n            \"Patient not registered.\"\r\n        );\r\n        require(doctors[_doctor].isRegistered, \"Doctor is not registered.\");\r\n        require(\r\n            !authorizedDoctors[msg.sender][_doctor],\r\n            \"Doctor already authorized.\"\r\n        );\r\n\r\n        authorizedDoctors[msg.sender][_doctor] = true;\r\n        patients[msg.sender].authorizedDoctors.push(_doctor);\r\n        emit DoctorAuthorized(msg.sender, _doctor);\r\n    }\r\n\r\n    // Revoke doctor's access\r\n    function revokeDoctorAccess(address _doctor) public {\r\n        require(\r\n            authorizedDoctors[msg.sender][_doctor],\r\n            \"Doctor not authorized.\"\r\n        );\r\n        authorizedDoctors[msg.sender][_doctor] = false;\r\n        emit DoctorRevoked(msg.sender, _doctor);\r\n    }\r\n\r\n    // Get patient details (restricted to patient and authorized doctors)\r\n    function getPatientDetails(\r\n        address _patientAddress\r\n    )\r\n        public\r\n        view\r\n        onlyPatientOrAuthorizedDoctor(_patientAddress)\r\n        returns (string memory, uint, string memory)\r\n    {\r\n        Patient memory patient = patients[_patientAddress];\r\n        require(bytes(patient.name).length > 0, \"Patient not registered.\");\r\n        return (patient.name, patient.age, patient.medicalHistory);\r\n    }\r\n\r\n    // Update medical history (only patient)\r\n    function updateMedicalHistory(string memory _newMedicalHistory) public {\r\n        require(\r\n            bytes(patients[msg.sender].name).length > 0,\r\n            \"Patient not registered.\"\r\n        );\r\n        patients[msg.sender].medicalHistory = _newMedicalHistory;\r\n        emit PatientUpdated(msg.sender, \"medicalHistory\");\r\n    }\r\n\r\n    // View authorized doctors for a patient\r\n    function getAuthorizedDoctors(\r\n        address _patientAddress\r\n    ) public view returns (address[] memory) {\r\n        return patients[_patientAddress].authorizedDoctors;\r\n    }\r\n\r\n    // View all patients who authorized a doctor\r\n    function getPatientsForDoctor(\r\n        address _doctor\r\n    ) public view onlyDoctor returns (address[] memory) {\r\n        uint count = 0;\r\n\r\n        // Count how many patients have authorized the doctor\r\n        for (uint i = 0; i < patientsList.length; i++) {\r\n            if (authorizedDoctors[patientsList[i]][_doctor]) {\r\n                count++;\r\n            }\r\n        }\r\n\r\n        // Create an array of the appropriate size\r\n        address[] memory authorizedPatients = new address[](count);\r\n        uint index = 0;\r\n\r\n        // Populate the array with authorized patients\r\n        for (uint i = 0; i < patientsList.length; i++) {\r\n            if (authorizedDoctors[patientsList[i]][_doctor]) {\r\n                authorizedPatients[index] = patientsList[i];\r\n                index++;\r\n            }\r\n        }\r\n\r\n        return authorizedPatients;\r\n    }\r\n\r\n    // Emergency access (only admin)\r\n    function emergencyAccess(\r\n        address _patientAddress\r\n    ) public onlyAdmin returns (string memory, uint, string memory) {\r\n        Patient memory patient = patients[_patientAddress];\r\n        require(bytes(patient.name).length > 0, \"Patient not registered.\");\r\n        emit EmergencyAccess(_patientAddress, msg.sender);\r\n        return (patient.name, patient.age, patient.medicalHistory);\r\n    }\r\n}\r\n",
  "sourcePath": "C:\\Users\\Shekhar\\blockchain-project\\blockchain-healthcare-system\\contracts\\Healthcare.sol",
  "compiler": {
    "name": "solc",
    "version": "0.8.19+commit.7dd6d404.Emscripten.clang"
  },
  "schemaVersion": "3.4.16",
  "updatedAt": "2024-12-27T06:47:12.902Z",
  "networkType": "ethereum",
  "devdoc": {
    "kind": "dev",
    "methods": {},
    "version": 1
  },
  "userdoc": {
    "kind": "user",
    "methods": {},
    "version": 1
  }
}